:100000000C9434000C9451000C9451000C94510049
:100010000C9451000C9451000C9451000C9451001C
:100020000C9451000C9451000C9451000C9451000C
:100030000C9451000C9451000C9451000C945100FC
:100040000C9451000C9451000C9451000C945100EC
:100050000C9451000C9451000C9451000C945100DC
:100060000C9434020C94510011241FBECFEFD4E045
:10007000DEBFCDBF11E0A0E0B1E0E8E7F5E002C0EF
:1000800005900D92A230B107D9F711E0A2E0B1E0DE
:1000900001C01D92A532B107E1F70E94D5010C9471
:1000A000BA020C940000982F9850903720F4809357
:1000B000000180E008958AEF08951F931FB7F89418
:1000C0000E94AC021FBF1F9108951F931FB7F894A1
:1000D0000E94A4021FBF1F9108951F93CF93DF9327
:1000E000EC01162F672F0E945D00CE010196612F53
:1000F0000E945D00DF91CF911F910895EF92FF92D2
:100100000F931F93CF93DF938C010E946500982F6C
:1001100080E0EC01C80101960E946500282F30E0C4
:100120002C2B3D2BC901DF91CF911F910F91FF9097
:10013000EF900895EF92FF920F931F93CF93DF9369
:10014000C0E0D0E002E010E0C8010E946500C80FE6
:10015000D11D0F5F1F4F0C301105B1F7CE01DF919C
:10016000CF911F910F91FF90EF900895CF93DF9360
:100170000E949A00EC018CE090E00E947E008C17B7
:100180009D0729F08CE090E0BE010E946D0080E0A8
:1001900090E00E947E002AEF8E3C920731F080E0D2
:1001A00090E06EEC7AEF0E946D00DF91CF910895A0
:1001B000CF93DF9380E090E00E947E002AEF8E3C98
:1001C000920759F48CE090E00E947E00EC010E94BE
:1001D0009A0021E0C817D90709F020E0822FDF91AB
:1001E000CF9108950E945D000E94B60008950E947C
:1001F0006D000E94B60008950E94B600089508950B
:1002000080910001880F81600E94DB010E940A0238
:100210000895DF93CF930F92CDB7DEB785B9898369
:100220000E940A0289810F90CF91DF9108951F9358
:10023000CF93DF93EC0189810E945300182F88230C
:1002400031F482E090E0609100010E94F200188396
:10025000CE0161E00E94EF010E94E4018823E1F7F2
:100260000E940001812FDF91CF911F910895AF92DD
:10027000BF92CF92DF92EF92FF920F931F93DF9383
:10028000CF930F92CDB7DEB75C01FC01028110E085
:10029000918180E0082B192B63816501C8010CC096
:1002A0007C010894E11CF11C69830E946500F60141
:1002B00081936F01C7016981282F201B261780F3C6
:1002C000C5010E94EF0180E00F90CF91DF911F9157
:1002D0000F91FF90EF90DF90CF90BF90AF90089577
:1002E0000F931F93DF93CF93CDB7DEB7A0970FB6D1
:1002F000F894DEBF0FBECDBF8091020180FF37C0F2
:1003000081FF2FC08E010F5F1F4FC80165E00E9463
:10031000170290910201898192FF02C08BB922C01D
:10032000803571F0813518F48031E1F405C08036F4
:1003300061F08037B9F411C0C8010E94170112C0E2
:1003400082E08983C80161E005C0198281E18A8366
:10035000C80162E00E94EF0105C0C8010E94370198
:1003600001C000000E94E401882331F403C00E9410
:10037000E80185B90E940A02A0960FB6F894DEBF84
:100380000FBECDBFCF91DF911F910F9108958FEFD9
:1003900084B91AB815B81BB887B9089508950E9492
:1003A000C7010E940001789408950E94CF018FEF49
:1003B00088B918B8FDCF8093BA008FEF8093BB0047
:1003C00084E08093BC0008958091BC008170089502
:1003D0008091BC0080FDFCCF8091010108952091A7
:1003E000BC0020FDFCCF60932301DC01E3E0F1E0E1
:1003F00070E06E0F7F1F02C08D918193E617F707A3
:10040000D9F71092020188EF8093010185EC809367
:10041000BC0008958091BC0080FDFCCF10920201C9
:1004200088EF8093010185EC8093BC0008952091B2
:10043000BC0020FDFCCF2091020120FF11C0E3E0B1
:10044000F1E0DC0170E06E0F7F1F02C081918D939F
:10045000E617F707D9F7809102018D7F809302019B
:1004600080910201817008951F920F920FB60F9232
:1004700011248F939F93EF93FF938091B90080395C
:1004800009F43FC0813940F4803771F18038C9F1F7
:10049000803609F049C02DC0883A59F0893A20F4D5
:1004A000803A09F041C044C0883B29F0803CE1F526
:1004B0000FC01092240180912401E82FF0E0ED5F3D
:1004C000FE4F90819093BB008F5F809324012AC0E0
:1004D0009091240180912301981731F580910201B8
:1004E00081608093020124C0809102018460809326
:1004F0000201809102018260809302011092240126
:1005000011C0809124019091BB00E82FF0E0ED5FD5
:10051000FE4F90838F5F8093240180910201816060
:100520008093020185EC05C08091B90080930101A0
:1005300084E08093BC00FF91EF919F918F910F9089
:100540000FBE0F901F901895F999FECF92BD81BDF7
:10055000F89A992780B50895262FF999FECF1FBAEA
:1005600092BD81BD20BD0FB6F894FA9AF99A0FBEDC
:0805700001960895F894FFCFF5
:0205780042F847
:00000001FF
