:100000000C9462000C948A000C948A000C948A0070
:100010000C948A000C948A000C948A000C948A0038
:100020000C948A000C948A000C948A000C948A0028
:100030000C948A000C948A000C948A000C948A0018
:100040000C9429050C948A000C9473070C94A40753
:100050000C948A000C948A000C948A000C948A00F8
:100060000C948A000C948A000000000024002700F1
:100070002A0000000000250028002B0000000000DE
:1000800023002600290004040404040404040202DA
:100090000202020203030303030301020408102007
:1000A0004080010204081020010204081020000012
:1000B0000007000201000003040600000000000029
:1000C0000000690811241FBECFEFD8E0DEBFCDBF0E
:1000D00011E0A0E0B1E0EAEBF3E102C005900D927F
:1000E000A431B107D9F711E0A4E1B1E001C01D923C
:1000F000A73FB107E1F710E0C4ECD0E004C02297BD
:10010000FE010E94D709C23CD107C9F70E947709B6
:100110000C94DB090C940000DB010D900020E9F742
:10012000AD0141505040461B570BDC01ED91FC9155
:100130000280F381E02D099508956AE070E080E087
:1001400090E00E94A50580E160E00E94580668EEFC
:1001500073E080E090E00E94A505F9CFEF92FF9256
:100160000F931F93DC01CB0182179307A407B507F8
:1001700048F07C018D01E21AF30A040B150BA8016B
:10018000970108C02095309540955095280F391F4C
:100190004A1F5B1FB901CA011F910F91FF90EF9099
:1001A00008951F93CF93DF93182FC8EDD1E0CE01B0
:1001B00063E20E941F07CE01612F0E941F07CE013C
:1001C00060E071E00E948C00DF91CF911F91089553
:1001D0002FEF8F3F920711F484E301C085E30E9463
:1001E000D1000895CF93DF93C8EDD1E0CE0160E454
:1001F0000E941F07CE0160E071E00E948C00DF9139
:10020000CF9108951F93CF93DF93182FC8EDD1E0BE
:10021000CE0160E40E941F07CE01612F0E941F07DC
:10022000CE0160E071E00E948C00DF91CF911F91C0
:1002300008950F931F93CF93DF938C01C8EDD1E006
:10024000CE0160E40E941F07CE01B8014AE050E0F1
:100250000E946D09CE0160E071E00E948C00DF9188
:10026000CF911F910F910895CF93DF93EC0188ED0B
:1002700091E060E40E941F07C031D1052CF488EDA5
:1002800091E060E30E941F0788ED91E0BE0140E12C
:1002900050E00E946D0988ED91E060E071E00E94FD
:1002A0008C00DF91CF9108950F931F9380912701C8
:1002B00090912801609125017091260168177907B6
:1002C000A4F1FC01EC5EFE4F4EEF5FEF20E030E06A
:1002D0001FC0A19101960A2F00530A3028F01093F5
:1002E0002701B09328011DC0A901440F551FB3E099
:1002F000220F331FBA95E1F7420F531F2A2F3327DE
:1003000027FD309520533040240F351F40E050E04A
:10031000DC01182F86179707E4F290932801809349
:1003200027014115510521F404C02FEF3FEF01C013
:100330009A01C9011F910F910895682F809343017D
:10034000909344018CE00E9458060895682F809392
:100350004501909346018DE00E94580608958091D2
:100360003D0180933E0184E080933D0181E090E077
:100370000E949D0181E090E00E94A6010895809175
:100380003D0180933E0182E080933D0180E090E05A
:100390000E949D0181E090E00E94A60180912901C8
:1003A00090912A01A0912B01B0912C0180933501ED
:1003B00090933601A0933701B0933801089580914E
:1003C0003D0180933E0181E080933D0181E090E01A
:1003D0000E949D0181E090E00E94A6018091290188
:1003E00090912A01A0912B01B0912C0180933101B1
:1003F00090933201A0933301B093340180932D0187
:1004000090932E01A0932F01B09330010895CF93C4
:10041000DF9310923D018FEF80933E0110924001D7
:1004200010923F0181E090E090934201809341015E
:10043000109244011092430110924601109245011E
:100440008FE060E00E94340680E161E00E943406A3
:1004500080E161E00E94580681E161E00E9434067B
:1004600081E160913F010E94580682E061E00E94B4
:10047000340682E0609141010E94580683E060E00A
:100480000E9434068CE061E00E94340680914301B2
:10049000909144010E949D018DE061E00E9434062C
:1004A00080914501909146010E94A6018BE060E099
:1004B0000E9434068AE060E00E94340689E060E031
:1004C0000E94340688E060E00E94340687E060E025
:1004D0000E94340686E060E00E94340685E060E019
:1004E0000E94340684E060E00E9434060E94710598
:1004F0006093290170932A0180932B0190932C0122
:10050000C8EDD1E0CE0140E052EC61E070E00E9425
:10051000EB07CE014AEF50E060E070E00E948609F0
:1005200010922601109225011092280110922701A5
:100530000E94DF01DF91CF91089581E090E020914A
:100540004301309144012130310511F480E090E005
:100550000E949D0181E090E020914501309146018B
:100560002130310511F480E090E00E94A601089549
:100570000E949006009711F480E3089581E30895A6
:10058000AF92BF92CF92DF92EF92FF920F931F93A1
:10059000CF93DF9389E00E949006EC0188E00E94EF
:1005A00090067C0187E00E9490068C0186E00E9404
:1005B00090066C0185E00E9490065C0184E00E9438
:1005C0009006EE0CFF1C000F111F000F111FE02AF8
:1005D000F12AEC2AFD2A33E0CC0CDD1C3A95E1F738
:1005E000EC28FD2824E0AA0CBB1C2A95E1F7EA2898
:1005F000FB2805E0880F991F0A95E1F7E82AF92AF8
:10060000C701DF91CF911F910F91FF90EF90DF9085
:10061000CF90BF90AF900895EF92FF92CF93DF936A
:100620008BE00E949006EC018AE00E949006CC0FBD
:10063000DD1FC82BD92BCE01DF91CF91FF90EF901A
:1006400008951F93CF93DF93809125019091260108
:10065000009731F0809114018D3011F08A3039F417
:1006600088ED91E060E071E00E948C0005C081326D
:1006700029F082E30E94D10010E0C8C0109115015A
:100680001C3609F48EC01D3650F4153609F484C0AA
:10069000183609F4B5C0133609F0B5C052C0123788
:1006A000A9F0133720F41F3609F0ADC072C0163719
:1006B00021F0173709F0A7C01FC082E090E00E9428
:1006C000190188ED91E00E940B07A0C083E090E043
:1006D00090932801809327010E94540197FD83C0C5
:1006E0009C01225030402C30310508F07FC00E9420
:1006F000B8020E9402018AC083E090E09093280132
:10070000809327010E945401EC0197FD6BC0029772
:100710008630910508F06AC08091270190912801E8
:10072000019690932801809327010E945401BC01F7
:10073000009719F08130910529F58C2F0E945806F9
:100740005FC083E090E090932801809327010E948E
:100750005401EC0197FD46C002978C30910508F0DA
:1007600045C080912701909128010196909328011E
:10077000809327010E945401BC01009731F0813021
:10078000910519F077FF32C02DC08C2F0E943406DE
:1007900037C00E94C00202C00E940C030E943401B4
:1007A00035C083E090E090932801809327010E9458
:1007B0005401EC0197FD16C0019782309105B0F409
:1007C00080912701909128010196909328018093B0
:1007D00027010E945401009759F08130910541F0A2
:1007E00097FF04C0CE010E94E80010C085E30CC052
:1007F000C230D10519F00E949D0102C00E94A601DD
:100800000E94F20003C083E30E94D100812FDF9198
:10081000CF911F91089588ED91E00E94BA0600974C
:10082000D9F188ED91E00E94E906209125013091EF
:1008300026018D3079F42C5E3E4FF9011082109222
:100840002801109227010E94210310922601109284
:10085000250108952031310544F0109226011092AF
:10086000250181E30E94D10015C0813249F421E0C5
:1008700030E03093260120932501809314010AC0B3
:10088000F901EC5EFE4F80832F5F3F4F30932601CE
:100890002093250180E0089580E00895609129016A
:1008A00070912A0180912B0190912C0120912D01B2
:1008B00030912E0140912F01509130010E94AE00E5
:1008C000643F21E0720720E0820720E0920790F069
:1008D0000E949D028091290190912A01A0912B01F3
:1008E000B0912C0180932D0190932E01A0932F01A4
:1008F000B09330010E940B04883619F40E94AF01B6
:1009000008956091290170912A0180912B019091A5
:100910002C012091390130913A0140913B015091D5
:100920003C010E94AE00603325E7720720E0820799
:1009300020E0920710F00E94AF0108950E940B047E
:10094000882319F0883609F51DC06091290170913E
:100950002A0180912B0190912C0120913501309139
:10096000360140913701509138010E94AE0068383D
:1009700023E1720720E0820720E09207B0F00E9496
:10098000DF0108950E94AF0108958091290190919F
:100990002A01A0912B01B0912C01809335019093F5
:1009A0003601A0933701B093380108956091290171
:1009B00070912A0180912B0190912C0120912D01A1
:1009C00030912E0140912F01509130010E94AE00D4
:1009D000643671058105910590F00E949D02809119
:1009E000290190912A01A0912B01B0912C018093B3
:1009F0002D0190932E01A0932F01B09330010E94FE
:100A00000B04882339F0883619F40E94AF01089549
:100A10000E94BF0108950E9471056093290170939F
:100A20002A0180932B0190932C0180913D0183300A
:100A300039F0843041F0823049F40E949E040895D8
:100A40000E944E0408950E949D0008950E94D604BD
:100A500008951F920F920FB60F9211242F933F9378
:100A60008F939F93AF93BF9380914B0190914C01D3
:100A7000A0914D01B0914E0130914F010196A11D01
:100A8000B11D232F2D5F2D3720F02D570196A11D6D
:100A9000B11D20934F0180934B0190934C01A09383
:100AA0004D01B0934E018091470190914801A09172
:100AB0004901B0914A010196A11DB11D80934701E2
:100AC00090934801A0934901B0934A01BF91AF911F
:100AD0009F918F913F912F910F900FBE0F901F907C
:100AE00018958FB7F89420914B0130914C014091AB
:100AF0004D0150914E018FBFB901CA0108959FB7B2
:100B0000F89420914701309148014091490150915A
:100B10004A0186B5A89B06C08F3F21F02F5F3F4F4B
:100B20004F4F5F4F9FBF542F432F322F2227280F45
:100B3000311D411D511D82E0220F331F441F551FDF
:100B40008A95D1F7B901CA010895EF92FF920F93E8
:100B50001F93CF93DF937B018C010E947F05EB01F4
:100B60000FC00E947F056C1B7D0B83E0683E7807F9
:100B700038F00894E108F10801091109C851DC4F67
:100B8000E114F1040105110561F7DF91CF911F9187
:100B90000F91FF90EF900895789484B5826084BDA2
:100BA00084B5816084BD85B5826085BD85B5816071
:100BB00085BDEEE6F0E0808181608083E1E8F0E0D1
:100BC0001082808182608083808181608083E0E800
:100BD000F0E0808181608083E1EBF0E080818460DF
:100BE0008083E0EBF0E0808181608083EAE7F0E0E1
:100BF0008081846080838081826080838081816045
:100C000080838081806880831092C1000895833042
:100C100071F0843028F48130A1F0823021F514C0C5
:100C20008630B1F08730D1F08430E9F404C080918F
:100C300080008F7703C0809180008F7D809380003B
:100C4000089584B58F7702C084B58F7D84BD0895E3
:100C50008091B0008F778093B00008958091B000AC
:100C60008F7D8093B000089590E0FC01E656FF4F21
:100C70002491FC01EA57FF4FE491EE23C1F0F0E02C
:100C8000EE0FFF1FE859FF4F85919491DC01662319
:100C900041F49FB7F8948C91209582238C939FBF49
:100CA00008959FB7F8948C91822B8C939FBF0895E1
:100CB0000F931F93DF93CF930F92CDB7DEB7282FFB
:100CC00030E0F901E255FF4F8491F901E656FF4FFC
:100CD00014912A573F4FF90104910023D9F088233A
:100CE00021F069830E9407066981E02FF0E0EE0F92
:100CF000FF1FEE58FF4F85919491DC019FB7F89448
:100D0000662321F48C911095812302C08C91812B54
:100D10008C939FBF0F90CF91DF911F910F910895FA
:100D20000F931F93282F30E0F901E255FF4F849174
:100D3000F901E656FF4F04912A573F4FF9011491EC
:100D4000112391F0882311F00E940706E12FF0E0B3
:100D5000EE0FFF1FE458FF4F85919491DC018C91B9
:100D6000802321E030E011F420E030E0C9011F9140
:100D70000F910895FC0184859585FC01E05CFF4F8F
:100D8000208131818E5B9F4FFC0180819181281BE6
:100D9000390B2F733070C9010895FC018485958546
:100DA000FC01E05CFF4F40815181FC01EE5BFF4F95
:100DB000208131814217530741F00190F081E02DED
:100DC000E80FF91F208130E002C02FEF3FEFC9018B
:100DD0000895FC0184859585FC01E05CFF4F40810E
:100DE0005181FC01EE5BFF4F208131814217530797
:100DF00071F0A081B181A80FB91F2C9180819181E0
:100E000001968F7390709183808330E002C02FEF42
:100E10003FEFC9010895DC011E968D919C911F97AB
:100E2000FC01E05CFF4F8E5B9F4F40815181DC01F4
:100E30002D913C91119742175307B9F708951F93CD
:100E4000FC01162F26853785D901A05CBF4F8D91F7
:100E50009C91019660E470E00E948C09D901AE5B20
:100E6000BF4F4D915C91119784179507D1F3D9012C
:100E7000A05CBF4F0D90BC91A02DA20FB31F1C937F
:100E8000A685B785A05CBF4F11969C938E93A689CB
:100E9000B7892C9181E090E0058C02C0880F991FE2
:100EA0000A94E2F7282B2C9381E090E01F9108959B
:100EB000FB01E05CFF4F208131812F5F3F4F2F739B
:100EC0003070DB01AE5BBF4F4D915C9111972417E1
:100ED000350739F0A081B181A60FB71F8C933183FC
:100EE0002083089508951F920F920FB60F92112438
:100EF0002F933F934F935F936F937F938F939F9322
:100F0000AF93BF93EF93FF938091C60060E571E0CC
:100F10000E945807FF91EF91BF91AF919F918F91E0
:100F20007F916F915F914F913F912F910F900FBEE5
:100F30000F901F90189588ED91E00E94BA060097D7
:100F400011F00E94720708951F920F920FB60F9230
:100F500011242F933F935F936F937F938F939F936E
:100F6000AF93BF93EF93FF932091D4013091D501BC
:100F70008091D6019091D7012817390731F48091DB
:100F8000C1008F7D8093C10016C0E091D601F09121
:100F9000D701EC56FE4F20818091D6019091D70168
:100FA000019660E470E00E948C099093D7018093D1
:100FB000D6012093C600FF91EF91BF91AF919F9111
:100FC0008F917F916F915F913F912F910F900FBE05
:100FD0000F901F901895DF92EF92FF920F931F933F
:100FE000CF93DF93EC017A018B01DD24D394403061
:100FF00081EE580780E0680780E0780749F4DD2437
:10100000EC89FD89108260E874E88EE190E00FC001
:10101000EC89FD8981E090E00E8C02C0880F991F59
:101020000A94E2F7808360E079E08DE390E0A80124
:1010300097010E949F0921503040404050405695F2
:1010400047953795279580E12030380710F0DD204F
:10105000B1F6E889F9893083EA89FB892083EE8932
:10106000FF89408181E090E09C010A8C02C0220F40
:10107000331F0A94E2F7422B4083EE89FF894081B7
:101080009C010B8C02C0220F331F0A94E2F7422B03
:101090004083EE89FF8940819C010C8C02C0220FA5
:1010A000331F0A94E2F7422B4083EE89FF892081A7
:1010B0000D8C02C0880F991F0A94E2F78095822355
:1010C0008083DF91CF911F910F91FF90EF90DF9080
:1010D00008951092DB011092DA0188EE93E0A0E00F
:1010E000B0E08093DC019093DD01A093DE01B0932A
:1010F000DF01EAEDF1E087E091E09293829380E5F1
:1011000091E09587848784E991E09787868785ECCD
:1011100090E0918B808B84EC90E0938B828B80ECC1
:1011200090E0958B848B81EC90E0978B868B86EC9E
:1011300090E0918F808F84E0828F83E0838F87E0BF
:10114000848F85E0858F81E0868F0895CF92DF922E
:10115000EF92FF920F931F93CF93DF936C017B016C
:101160008A01C0E0D0E00FC0D7016D917D01D601AA
:10117000ED91FC910190F081E02DC6010995C80F19
:10118000D91F015010400115110571F7CE01DF91F3
:10119000CF911F910F91FF90EF90DF90CF90089526
:1011A000DC01ED91FC910190F081E02D099508950D
:1011B0008F929F92AF92BF92CF92DF92EF92FF9267
:1011C0000F931F93DF93CF93CDB7DEB7A1970FB6E1
:1011D000F894DEBF0FBECDBF6C01042FE52FCB010D
:1011E000122F19A2223008F41AE021E2E22EF12C8B
:1011F000EC0EFD1E812E9924AA24BB2403C0022FCD
:10120000E32FCA01602F7E2FA50194010E949F0940
:10121000129F802D1124081B0894E108F1080A3060
:1012200014F4005D01C0095CF7010083211531054C
:101230004105510521F7C601B7010E948C00A19616
:101240000FB6F894DEBF0FBECDBFCF91DF911F91D7
:101250000F91FF90EF90DF90CF90BF90AF909F9055
:101260008F900895CF92DF92EF92FF920F931F938A
:10127000CF93DF93EC017A018B012115310541F405
:10128000E881F9810190F081E02D642F09951AC061
:101290002A303105A9F477FF12C06DE20E94D00810
:1012A0006C0144275527BA014E195F09600B710B79
:1012B000CE012AE00E94D808C80ED91E04C02AE038
:1012C0000E94D8086C01C601DF91CF911F910F9148
:1012D000FF90EF90DF90CF9008959A01FB01AF014E
:1012E000662757FD6095762F0E9432090895CF93A7
:1012F000DF930E94CC050E940702CBE9D7E00E9451
:101300000B052097E1F30E949B07F9CFFC01448372
:10131000558366837783089597FB092E07260AD0A5
:1013200077FD04D02ED006D000201AF47095619578
:101330007F4F0895F6F7909581959F4F0895A1E20C
:101340001A2EAA1BBB1BFD010DC0AA1FBB1FEE1F3F
:10135000FF1FA217B307E407F50720F0A21BB30B8A
:10136000E40BF50B661F771F881F991F1A9469F706
:1013700060957095809590959B01AC01BD01CF0162
:101380000895AA1BBB1B51E107C0AA1FBB1FA617CC
:10139000B70710F0A61BB70B881F991F5A95A9F71E
:1013A00080959095BC01CD010895EE0FFF1F05902B
:0A13B000F491E02D0994F894FFCFAA
:1013BA000A0D00000000001F07A608BA06E906CDBC
:0413CA00060B070007
:00000001FF
